{
  "_format": "hh-sol-artifact-1",
  "contractName": "ERC721",
  "sourceName": "contracts/ERC721.sol",
  "abi": [
    {
      "inputs": [],
      "stateMutability": "nonpayable",
      "type": "constructor"
    },
    {
      "anonymous": false,
      "inputs": [
        {
          "indexed": true,
          "internalType": "address",
          "name": "owner",
          "type": "address"
        },
        {
          "indexed": true,
          "internalType": "address",
          "name": "approved",
          "type": "address"
        },
        {
          "indexed": true,
          "internalType": "uint256",
          "name": "tokenId",
          "type": "uint256"
        }
      ],
      "name": "Approval",
      "type": "event"
    },
    {
      "anonymous": false,
      "inputs": [
        {
          "indexed": true,
          "internalType": "address",
          "name": "owner",
          "type": "address"
        },
        {
          "indexed": true,
          "internalType": "address",
          "name": "operator",
          "type": "address"
        },
        {
          "indexed": false,
          "internalType": "bool",
          "name": "approved",
          "type": "bool"
        }
      ],
      "name": "ApprovalForAll",
      "type": "event"
    },
    {
      "anonymous": false,
      "inputs": [
        {
          "indexed": true,
          "internalType": "bytes32",
          "name": "role",
          "type": "bytes32"
        },
        {
          "indexed": true,
          "internalType": "bytes32",
          "name": "previousAdminRole",
          "type": "bytes32"
        },
        {
          "indexed": true,
          "internalType": "bytes32",
          "name": "newAdminRole",
          "type": "bytes32"
        }
      ],
      "name": "RoleAdminChanged",
      "type": "event"
    },
    {
      "anonymous": false,
      "inputs": [
        {
          "indexed": true,
          "internalType": "bytes32",
          "name": "role",
          "type": "bytes32"
        },
        {
          "indexed": true,
          "internalType": "address",
          "name": "account",
          "type": "address"
        },
        {
          "indexed": true,
          "internalType": "address",
          "name": "sender",
          "type": "address"
        }
      ],
      "name": "RoleGranted",
      "type": "event"
    },
    {
      "anonymous": false,
      "inputs": [
        {
          "indexed": true,
          "internalType": "bytes32",
          "name": "role",
          "type": "bytes32"
        },
        {
          "indexed": true,
          "internalType": "address",
          "name": "account",
          "type": "address"
        },
        {
          "indexed": true,
          "internalType": "address",
          "name": "sender",
          "type": "address"
        }
      ],
      "name": "RoleRevoked",
      "type": "event"
    },
    {
      "anonymous": false,
      "inputs": [
        {
          "indexed": true,
          "internalType": "address",
          "name": "from",
          "type": "address"
        },
        {
          "indexed": true,
          "internalType": "address",
          "name": "to",
          "type": "address"
        },
        {
          "indexed": true,
          "internalType": "uint256",
          "name": "tokenId",
          "type": "uint256"
        }
      ],
      "name": "Transfer",
      "type": "event"
    },
    {
      "inputs": [],
      "name": "DEFAULT_ADMIN_ROLE",
      "outputs": [
        {
          "internalType": "bytes32",
          "name": "",
          "type": "bytes32"
        }
      ],
      "stateMutability": "view",
      "type": "function"
    },
    {
      "inputs": [],
      "name": "MINTER_ROLE",
      "outputs": [
        {
          "internalType": "bytes32",
          "name": "",
          "type": "bytes32"
        }
      ],
      "stateMutability": "view",
      "type": "function"
    },
    {
      "inputs": [
        {
          "internalType": "address",
          "name": "to",
          "type": "address"
        },
        {
          "internalType": "uint256",
          "name": "tokenId",
          "type": "uint256"
        }
      ],
      "name": "approve",
      "outputs": [],
      "stateMutability": "nonpayable",
      "type": "function"
    },
    {
      "inputs": [
        {
          "internalType": "address",
          "name": "owner",
          "type": "address"
        }
      ],
      "name": "balanceOf",
      "outputs": [
        {
          "internalType": "uint256",
          "name": "",
          "type": "uint256"
        }
      ],
      "stateMutability": "view",
      "type": "function"
    },
    {
      "inputs": [
        {
          "internalType": "uint256",
          "name": "tokenId",
          "type": "uint256"
        }
      ],
      "name": "burn",
      "outputs": [],
      "stateMutability": "nonpayable",
      "type": "function"
    },
    {
      "inputs": [
        {
          "internalType": "uint256",
          "name": "tokenId",
          "type": "uint256"
        }
      ],
      "name": "getApproved",
      "outputs": [
        {
          "internalType": "address",
          "name": "",
          "type": "address"
        }
      ],
      "stateMutability": "view",
      "type": "function"
    },
    {
      "inputs": [
        {
          "internalType": "bytes32",
          "name": "role",
          "type": "bytes32"
        }
      ],
      "name": "getRoleAdmin",
      "outputs": [
        {
          "internalType": "bytes32",
          "name": "",
          "type": "bytes32"
        }
      ],
      "stateMutability": "view",
      "type": "function"
    },
    {
      "inputs": [
        {
          "internalType": "bytes32",
          "name": "role",
          "type": "bytes32"
        },
        {
          "internalType": "address",
          "name": "account",
          "type": "address"
        }
      ],
      "name": "grantRole",
      "outputs": [],
      "stateMutability": "nonpayable",
      "type": "function"
    },
    {
      "inputs": [
        {
          "internalType": "bytes32",
          "name": "role",
          "type": "bytes32"
        },
        {
          "internalType": "address",
          "name": "account",
          "type": "address"
        }
      ],
      "name": "hasRole",
      "outputs": [
        {
          "internalType": "bool",
          "name": "",
          "type": "bool"
        }
      ],
      "stateMutability": "view",
      "type": "function"
    },
    {
      "inputs": [
        {
          "internalType": "address",
          "name": "owner",
          "type": "address"
        },
        {
          "internalType": "address",
          "name": "operator",
          "type": "address"
        }
      ],
      "name": "isApprovedForAll",
      "outputs": [
        {
          "internalType": "bool",
          "name": "",
          "type": "bool"
        }
      ],
      "stateMutability": "view",
      "type": "function"
    },
    {
      "inputs": [],
      "name": "name",
      "outputs": [
        {
          "internalType": "string",
          "name": "",
          "type": "string"
        }
      ],
      "stateMutability": "view",
      "type": "function"
    },
    {
      "inputs": [
        {
          "internalType": "uint256",
          "name": "tokenId",
          "type": "uint256"
        }
      ],
      "name": "ownerOf",
      "outputs": [
        {
          "internalType": "address",
          "name": "",
          "type": "address"
        }
      ],
      "stateMutability": "view",
      "type": "function"
    },
    {
      "inputs": [
        {
          "internalType": "bytes32",
          "name": "role",
          "type": "bytes32"
        },
        {
          "internalType": "address",
          "name": "account",
          "type": "address"
        }
      ],
      "name": "renounceRole",
      "outputs": [],
      "stateMutability": "nonpayable",
      "type": "function"
    },
    {
      "inputs": [
        {
          "internalType": "bytes32",
          "name": "role",
          "type": "bytes32"
        },
        {
          "internalType": "address",
          "name": "account",
          "type": "address"
        }
      ],
      "name": "revokeRole",
      "outputs": [],
      "stateMutability": "nonpayable",
      "type": "function"
    },
    {
      "inputs": [
        {
          "internalType": "address",
          "name": "to",
          "type": "address"
        },
        {
          "internalType": "uint256",
          "name": "tokenId",
          "type": "uint256"
        }
      ],
      "name": "safeMint",
      "outputs": [],
      "stateMutability": "nonpayable",
      "type": "function"
    },
    {
      "inputs": [
        {
          "internalType": "address",
          "name": "from",
          "type": "address"
        },
        {
          "internalType": "address",
          "name": "to",
          "type": "address"
        },
        {
          "internalType": "uint256",
          "name": "tokenId",
          "type": "uint256"
        }
      ],
      "name": "safeTransferFrom",
      "outputs": [],
      "stateMutability": "nonpayable",
      "type": "function"
    },
    {
      "inputs": [
        {
          "internalType": "address",
          "name": "from",
          "type": "address"
        },
        {
          "internalType": "address",
          "name": "to",
          "type": "address"
        },
        {
          "internalType": "uint256",
          "name": "tokenId",
          "type": "uint256"
        },
        {
          "internalType": "bytes",
          "name": "_data",
          "type": "bytes"
        }
      ],
      "name": "safeTransferFrom",
      "outputs": [],
      "stateMutability": "nonpayable",
      "type": "function"
    },
    {
      "inputs": [
        {
          "internalType": "address",
          "name": "operator",
          "type": "address"
        },
        {
          "internalType": "bool",
          "name": "approved",
          "type": "bool"
        }
      ],
      "name": "setApprovalForAll",
      "outputs": [],
      "stateMutability": "nonpayable",
      "type": "function"
    },
    {
      "inputs": [
        {
          "internalType": "bytes4",
          "name": "interfaceId",
          "type": "bytes4"
        }
      ],
      "name": "supportsInterface",
      "outputs": [
        {
          "internalType": "bool",
          "name": "",
          "type": "bool"
        }
      ],
      "stateMutability": "view",
      "type": "function"
    },
    {
      "inputs": [],
      "name": "symbol",
      "outputs": [
        {
          "internalType": "string",
          "name": "",
          "type": "string"
        }
      ],
      "stateMutability": "view",
      "type": "function"
    },
    {
      "inputs": [
        {
          "internalType": "uint256",
          "name": "tokenId",
          "type": "uint256"
        }
      ],
      "name": "tokenURI",
      "outputs": [
        {
          "internalType": "string",
          "name": "",
          "type": "string"
        }
      ],
      "stateMutability": "view",
      "type": "function"
    },
    {
      "inputs": [
        {
          "internalType": "address",
          "name": "from",
          "type": "address"
        },
        {
          "internalType": "address",
          "name": "to",
          "type": "address"
        },
        {
          "internalType": "uint256",
          "name": "tokenId",
          "type": "uint256"
        }
      ],
      "name": "transferFrom",
      "outputs": [],
      "stateMutability": "nonpayable",
      "type": "function"
    }
  ],
  "bytecode": "0x60806040523480156200001157600080fd5b506040518060400160405280600781526020017f4d79546f6b656e000000000000000000000000000000000000000000000000008152506040518060400160405280600381526020017f4d544b000000000000000000000000000000000000000000000000000000000081525081600090805190602001906200009692919062000264565b508060019080519060200190620000af92919062000264565b505050620000c76000801b33620000ff60201b60201c565b620000f97f9f2df0fed2c77648de5860a4cc508cd0818c85b8b8a1ab4ceeef8d981c8956a633620000ff60201b60201c565b62000379565b620001118282620001f160201b60201c565b620001ed5760016006600084815260200190815260200160002060000160008373ffffffffffffffffffffffffffffffffffffffff1673ffffffffffffffffffffffffffffffffffffffff16815260200190815260200160002060006101000a81548160ff021916908315150217905550620001926200025c60201b60201c565b73ffffffffffffffffffffffffffffffffffffffff168173ffffffffffffffffffffffffffffffffffffffff16837f2f8788117e7eff1d82e926ec794901d17c78024a50270940304540a733656f0d60405160405180910390a45b5050565b60006006600084815260200190815260200160002060000160008373ffffffffffffffffffffffffffffffffffffffff1673ffffffffffffffffffffffffffffffffffffffff16815260200190815260200160002060009054906101000a900460ff16905092915050565b600033905090565b828054620002729062000314565b90600052602060002090601f016020900481019282620002965760008555620002e2565b82601f10620002b157805160ff1916838001178555620002e2565b82800160010185558215620002e2579182015b82811115620002e1578251825591602001919060010190620002c4565b5b509050620002f19190620002f5565b5090565b5b8082111562000310576000816000905550600101620002f6565b5090565b600060028204905060018216806200032d57607f821691505b602082108114156200034457620003436200034a565b5b50919050565b7f4e487b7100000000000000000000000000000000000000000000000000000000600052602260045260246000fd5b61355f80620003896000396000f3fe608060405234801561001057600080fd5b50600436106101425760003560e01c806370a08231116100b8578063a22cb4651161007c578063a22cb46514610385578063b88d4fde146103a1578063c87b56dd146103bd578063d5391393146103ed578063d547741f1461040b578063e985e9c51461042757610142565b806370a08231146102cd57806391d14854146102fd57806395d89b411461032d578063a14481941461034b578063a217fddf1461036757610142565b8063248a9ca31161010a578063248a9ca3146101fd5780632f2ff15d1461022d57806336568abe1461024957806342842e0e1461026557806342966c68146102815780636352211e1461029d57610142565b806301ffc9a71461014757806306fdde0314610177578063081812fc14610195578063095ea7b3146101c557806323b872dd146101e1575b600080fd5b610161600480360381019061015c9190612430565b610457565b60405161016e91906128e8565b60405180910390f35b61017f610469565b60405161018c919061291e565b60405180910390f35b6101af60048036038101906101aa9190612482565b6104fb565b6040516101bc9190612881565b60405180910390f35b6101df60048036038101906101da919061238f565b610580565b005b6101fb60048036038101906101f69190612289565b610698565b005b610217600480360381019061021291906123cb565b6106f8565b6040516102249190612903565b60405180910390f35b610247600480360381019061024291906123f4565b610718565b005b610263600480360381019061025e91906123f4565b610739565b005b61027f600480360381019061027a9190612289565b6107bc565b005b61029b60048036038101906102969190612482565b6107dc565b005b6102b760048036038101906102b29190612482565b610838565b6040516102c49190612881565b60405180910390f35b6102e760048036038101906102e29190612224565b6108ea565b6040516102f49190612b60565b60405180910390f35b610317600480360381019061031291906123f4565b6109a2565b60405161032491906128e8565b60405180910390f35b610335610a0d565b604051610342919061291e565b60405180910390f35b6103656004803603810190610360919061238f565b610a9f565b005b61036f610ad8565b60405161037c9190612903565b60405180910390f35b61039f600480360381019061039a9190612353565b610adf565b005b6103bb60048036038101906103b691906122d8565b610af5565b005b6103d760048036038101906103d29190612482565b610b57565b6040516103e4919061291e565b60405180910390f35b6103f5610bfe565b6040516104029190612903565b60405180910390f35b610425600480360381019061042091906123f4565b610c22565b005b610441600480360381019061043c919061224d565b610c43565b60405161044e91906128e8565b60405180910390f35b600061046282610cd7565b9050919050565b60606000805461047890612e13565b80601f01602080910402602001604051908101604052809291908181526020018280546104a490612e13565b80156104f15780601f106104c6576101008083540402835291602001916104f1565b820191906000526020600020905b8154815290600101906020018083116104d457829003601f168201915b5050505050905090565b600061050682610d51565b610545576040517f08c379a000000000000000000000000000000000000000000000000000000000815260040161053c90612aa0565b60405180910390fd5b6004600083815260200190815260200160002060009054906101000a900473ffffffffffffffffffffffffffffffffffffffff169050919050565b600061058b82610838565b90508073ffffffffffffffffffffffffffffffffffffffff168373ffffffffffffffffffffffffffffffffffffffff1614156105fc576040517f08c379a00000000000000000000000000000000000000000000000000000000081526004016105f390612ae0565b60405180910390fd5b8073ffffffffffffffffffffffffffffffffffffffff1661061b610dbd565b73ffffffffffffffffffffffffffffffffffffffff16148061064a575061064981610644610dbd565b610c43565b5b610689576040517f08c379a000000000000000000000000000000000000000000000000000000000815260040161068090612a20565b60405180910390fd5b6106938383610dc5565b505050565b6106a96106a3610dbd565b82610e7e565b6106e8576040517f08c379a00000000000000000000000000000000000000000000000000000000081526004016106df90612b00565b60405180910390fd5b6106f3838383610f5c565b505050565b600060066000838152602001908152602001600020600101549050919050565b610721826106f8565b61072a816111c3565b61073483836111d7565b505050565b610741610dbd565b73ffffffffffffffffffffffffffffffffffffffff168173ffffffffffffffffffffffffffffffffffffffff16146107ae576040517f08c379a00000000000000000000000000000000000000000000000000000000081526004016107a590612b40565b60405180910390fd5b6107b882826112b8565b5050565b6107d783838360405180602001604052806000815250610af5565b505050565b6107ed6107e7610dbd565b82610e7e565b61082c576040517f08c379a000000000000000000000000000000000000000000000000000000000815260040161082390612b20565b60405180910390fd5b6108358161139a565b50565b6000806002600084815260200190815260200160002060009054906101000a900473ffffffffffffffffffffffffffffffffffffffff169050600073ffffffffffffffffffffffffffffffffffffffff168173ffffffffffffffffffffffffffffffffffffffff1614156108e1576040517f08c379a00000000000000000000000000000000000000000000000000000000081526004016108d890612a60565b60405180910390fd5b80915050919050565b60008073ffffffffffffffffffffffffffffffffffffffff168273ffffffffffffffffffffffffffffffffffffffff16141561095b576040517f08c379a000000000000000000000000000000000000000000000000000000000815260040161095290612a40565b60405180910390fd5b600360008373ffffffffffffffffffffffffffffffffffffffff1673ffffffffffffffffffffffffffffffffffffffff168152602001908152602001600020549050919050565b60006006600084815260200190815260200160002060000160008373ffffffffffffffffffffffffffffffffffffffff1673ffffffffffffffffffffffffffffffffffffffff16815260200190815260200160002060009054906101000a900460ff16905092915050565b606060018054610a1c90612e13565b80601f0160208091040260200160405190810160405280929190818152602001828054610a4890612e13565b8015610a955780601f10610a6a57610100808354040283529160200191610a95565b820191906000526020600020905b815481529060010190602001808311610a7857829003601f168201915b5050505050905090565b7f9f2df0fed2c77648de5860a4cc508cd0818c85b8b8a1ab4ceeef8d981c8956a6610ac9816111c3565b610ad383836114b7565b505050565b6000801b81565b610af1610aea610dbd565b83836114d5565b5050565b610b06610b00610dbd565b83610e7e565b610b45576040517f08c379a0000000000000000000000000000000000000000000000000000000008152600401610b3c90612b00565b60405180910390fd5b610b5184848484611642565b50505050565b6060610b6282610d51565b610ba1576040517f08c379a0000000000000000000000000000000000000000000000000000000008152600401610b9890612ac0565b60405180910390fd5b6000610bab61169e565b90506000815111610bcb5760405180602001604052806000815250610bf6565b80610bd5846116b5565b604051602001610be6929190612823565b6040516020818303038152906040525b915050919050565b7f9f2df0fed2c77648de5860a4cc508cd0818c85b8b8a1ab4ceeef8d981c8956a681565b610c2b826106f8565b610c34816111c3565b610c3e83836112b8565b505050565b6000600560008473ffffffffffffffffffffffffffffffffffffffff1673ffffffffffffffffffffffffffffffffffffffff16815260200190815260200160002060008373ffffffffffffffffffffffffffffffffffffffff1673ffffffffffffffffffffffffffffffffffffffff16815260200190815260200160002060009054906101000a900460ff16905092915050565b60007f7965db0b000000000000000000000000000000000000000000000000000000007bffffffffffffffffffffffffffffffffffffffffffffffffffffffff1916827bffffffffffffffffffffffffffffffffffffffffffffffffffffffff19161480610d4a5750610d4982611862565b5b9050919050565b60008073ffffffffffffffffffffffffffffffffffffffff166002600084815260200190815260200160002060009054906101000a900473ffffffffffffffffffffffffffffffffffffffff1673ffffffffffffffffffffffffffffffffffffffff1614159050919050565b600033905090565b816004600083815260200190815260200160002060006101000a81548173ffffffffffffffffffffffffffffffffffffffff021916908373ffffffffffffffffffffffffffffffffffffffff160217905550808273ffffffffffffffffffffffffffffffffffffffff16610e3883610838565b73ffffffffffffffffffffffffffffffffffffffff167f8c5be1e5ebec7d5bd14f71427d1e84f3dd0314c0f7b2291e5b200ac8c7c3b92560405160405180910390a45050565b6000610e8982610d51565b610ec8576040517f08c379a0000000000000000000000000000000000000000000000000000000008152600401610ebf90612a00565b60405180910390fd5b6000610ed383610838565b90508073ffffffffffffffffffffffffffffffffffffffff168473ffffffffffffffffffffffffffffffffffffffff161480610f155750610f148185610c43565b5b80610f5357508373ffffffffffffffffffffffffffffffffffffffff16610f3b846104fb565b73ffffffffffffffffffffffffffffffffffffffff16145b91505092915050565b8273ffffffffffffffffffffffffffffffffffffffff16610f7c82610838565b73ffffffffffffffffffffffffffffffffffffffff1614610fd2576040517f08c379a0000000000000000000000000000000000000000000000000000000008152600401610fc990612980565b60405180910390fd5b600073ffffffffffffffffffffffffffffffffffffffff168273ffffffffffffffffffffffffffffffffffffffff161415611042576040517f08c379a0000000000000000000000000000000000000000000000000000000008152600401611039906129c0565b60405180910390fd5b61104d838383611944565b611058600082610dc5565b6001600360008573ffffffffffffffffffffffffffffffffffffffff1673ffffffffffffffffffffffffffffffffffffffff16815260200190815260200160002060008282546110a89190612cf5565b925050819055506001600360008473ffffffffffffffffffffffffffffffffffffffff1673ffffffffffffffffffffffffffffffffffffffff16815260200190815260200160002060008282546110ff9190612c14565b92505081905550816002600083815260200190815260200160002060006101000a81548173ffffffffffffffffffffffffffffffffffffffff021916908373ffffffffffffffffffffffffffffffffffffffff160217905550808273ffffffffffffffffffffffffffffffffffffffff168473ffffffffffffffffffffffffffffffffffffffff167fddf252ad1be2c89b69c2b068fc378daa952ba7f163c4a11628f55a4df523b3ef60405160405180910390a46111be838383611949565b505050565b6111d4816111cf610dbd565b61194e565b50565b6111e182826109a2565b6112b45760016006600084815260200190815260200160002060000160008373ffffffffffffffffffffffffffffffffffffffff1673ffffffffffffffffffffffffffffffffffffffff16815260200190815260200160002060006101000a81548160ff021916908315150217905550611259610dbd565b73ffffffffffffffffffffffffffffffffffffffff168173ffffffffffffffffffffffffffffffffffffffff16837f2f8788117e7eff1d82e926ec794901d17c78024a50270940304540a733656f0d60405160405180910390a45b5050565b6112c282826109a2565b156113965760006006600084815260200190815260200160002060000160008373ffffffffffffffffffffffffffffffffffffffff1673ffffffffffffffffffffffffffffffffffffffff16815260200190815260200160002060006101000a81548160ff02191690831515021790555061133b610dbd565b73ffffffffffffffffffffffffffffffffffffffff168173ffffffffffffffffffffffffffffffffffffffff16837ff6391f5c32d9c69d2a47ea670b442974b53935d1edc7fd64eb21e047a839171b60405160405180910390a45b5050565b60006113a582610838565b90506113b381600084611944565b6113be600083610dc5565b6001600360008373ffffffffffffffffffffffffffffffffffffffff1673ffffffffffffffffffffffffffffffffffffffff168152602001908152602001600020600082825461140e9190612cf5565b925050819055506002600083815260200190815260200160002060006101000a81549073ffffffffffffffffffffffffffffffffffffffff021916905581600073ffffffffffffffffffffffffffffffffffffffff168273ffffffffffffffffffffffffffffffffffffffff167fddf252ad1be2c89b69c2b068fc378daa952ba7f163c4a11628f55a4df523b3ef60405160405180910390a46114b381600084611949565b5050565b6114d18282604051806020016040528060008152506119eb565b5050565b8173ffffffffffffffffffffffffffffffffffffffff168373ffffffffffffffffffffffffffffffffffffffff161415611544576040517f08c379a000000000000000000000000000000000000000000000000000000000815260040161153b906129e0565b60405180910390fd5b80600560008573ffffffffffffffffffffffffffffffffffffffff1673ffffffffffffffffffffffffffffffffffffffff16815260200190815260200160002060008473ffffffffffffffffffffffffffffffffffffffff1673ffffffffffffffffffffffffffffffffffffffff16815260200190815260200160002060006101000a81548160ff0219169083151502179055508173ffffffffffffffffffffffffffffffffffffffff168373ffffffffffffffffffffffffffffffffffffffff167f17307eab39ab6107e8899845ad3d59bd9653f200f220920489ca2b5937696c318360405161163591906128e8565b60405180910390a3505050565b61164d848484610f5c565b61165984848484611a46565b611698576040517f08c379a000000000000000000000000000000000000000000000000000000000815260040161168f90612960565b60405180910390fd5b50505050565b606060405180602001604052806000815250905090565b606060008214156116fd576040518060400160405280600181526020017f3000000000000000000000000000000000000000000000000000000000000000815250905061185d565b600082905060005b6000821461172f57808061171890612e76565b915050600a826117289190612c6a565b9150611705565b60008167ffffffffffffffff811115611771577f4e487b7100000000000000000000000000000000000000000000000000000000600052604160045260246000fd5b6040519080825280601f01601f1916602001820160405280156117a35781602001600182028036833780820191505090505b5090505b60008514611856576001826117bc9190612cf5565b9150600a856117cb9190612ebf565b60306117d79190612c14565b60f81b818381518110611813577f4e487b7100000000000000000000000000000000000000000000000000000000600052603260045260246000fd5b60200101907effffffffffffffffffffffffffffffffffffffffffffffffffffffffffffff1916908160001a905350600a8561184f9190612c6a565b94506117a7565b8093505050505b919050565b60007f80ac58cd000000000000000000000000000000000000000000000000000000007bffffffffffffffffffffffffffffffffffffffffffffffffffffffff1916827bffffffffffffffffffffffffffffffffffffffffffffffffffffffff1916148061192d57507f5b5e139f000000000000000000000000000000000000000000000000000000007bffffffffffffffffffffffffffffffffffffffffffffffffffffffff1916827bffffffffffffffffffffffffffffffffffffffffffffffffffffffff1916145b8061193d575061193c82611bdd565b5b9050919050565b505050565b505050565b61195882826109a2565b6119e75761197d8173ffffffffffffffffffffffffffffffffffffffff166014611c47565b61198b8360001c6020611c47565b60405160200161199c929190612847565b6040516020818303038152906040526040517f08c379a00000000000000000000000000000000000000000000000000000000081526004016119de919061291e565b60405180910390fd5b5050565b6119f58383611f41565b611a026000848484611a46565b611a41576040517f08c379a0000000000000000000000000000000000000000000000000000000008152600401611a3890612960565b60405180910390fd5b505050565b6000611a678473ffffffffffffffffffffffffffffffffffffffff1661211b565b15611bd0578373ffffffffffffffffffffffffffffffffffffffff1663150b7a02611a90610dbd565b8786866040518563ffffffff1660e01b8152600401611ab2949392919061289c565b602060405180830381600087803b158015611acc57600080fd5b505af1925050508015611afd57506040513d601f19601f82011682018060405250810190611afa9190612459565b60015b611b80573d8060008114611b2d576040519150601f19603f3d011682016040523d82523d6000602084013e611b32565b606091505b50600081511415611b78576040517f08c379a0000000000000000000000000000000000000000000000000000000008152600401611b6f90612960565b60405180910390fd5b805181602001fd5b63150b7a0260e01b7bffffffffffffffffffffffffffffffffffffffffffffffffffffffff1916817bffffffffffffffffffffffffffffffffffffffffffffffffffffffff191614915050611bd5565b600190505b949350505050565b60007f01ffc9a7000000000000000000000000000000000000000000000000000000007bffffffffffffffffffffffffffffffffffffffffffffffffffffffff1916827bffffffffffffffffffffffffffffffffffffffffffffffffffffffff1916149050919050565b606060006002836002611c5a9190612c9b565b611c649190612c14565b67ffffffffffffffff811115611ca3577f4e487b7100000000000000000000000000000000000000000000000000000000600052604160045260246000fd5b6040519080825280601f01601f191660200182016040528015611cd55781602001600182028036833780820191505090505b5090507f300000000000000000000000000000000000000000000000000000000000000081600081518110611d33577f4e487b7100000000000000000000000000000000000000000000000000000000600052603260045260246000fd5b60200101907effffffffffffffffffffffffffffffffffffffffffffffffffffffffffffff1916908160001a9053507f780000000000000000000000000000000000000000000000000000000000000081600181518110611dbd577f4e487b7100000000000000000000000000000000000000000000000000000000600052603260045260246000fd5b60200101907effffffffffffffffffffffffffffffffffffffffffffffffffffffffffffff1916908160001a90535060006001846002611dfd9190612c9b565b611e079190612c14565b90505b6001811115611ef3577f3031323334353637383961626364656600000000000000000000000000000000600f861660108110611e6f577f4e487b7100000000000000000000000000000000000000000000000000000000600052603260045260246000fd5b1a60f81b828281518110611eac577f4e487b7100000000000000000000000000000000000000000000000000000000600052603260045260246000fd5b60200101907effffffffffffffffffffffffffffffffffffffffffffffffffffffffffffff1916908160001a905350600485901c945080611eec90612de9565b9050611e0a565b5060008414611f37576040517f08c379a0000000000000000000000000000000000000000000000000000000008152600401611f2e90612940565b60405180910390fd5b8091505092915050565b600073ffffffffffffffffffffffffffffffffffffffff168273ffffffffffffffffffffffffffffffffffffffff161415611fb1576040517f08c379a0000000000000000000000000000000000000000000000000000000008152600401611fa890612a80565b60405180910390fd5b611fba81610d51565b15611ffa576040517f08c379a0000000000000000000000000000000000000000000000000000000008152600401611ff1906129a0565b60405180910390fd5b61200660008383611944565b6001600360008473ffffffffffffffffffffffffffffffffffffffff1673ffffffffffffffffffffffffffffffffffffffff16815260200190815260200160002060008282546120569190612c14565b92505081905550816002600083815260200190815260200160002060006101000a81548173ffffffffffffffffffffffffffffffffffffffff021916908373ffffffffffffffffffffffffffffffffffffffff160217905550808273ffffffffffffffffffffffffffffffffffffffff16600073ffffffffffffffffffffffffffffffffffffffff167fddf252ad1be2c89b69c2b068fc378daa952ba7f163c4a11628f55a4df523b3ef60405160405180910390a461211760008383611949565b5050565b6000808273ffffffffffffffffffffffffffffffffffffffff163b119050919050565b600061215161214c84612ba0565b612b7b565b90508281526020810184848401111561216957600080fd5b612174848285612da7565b509392505050565b60008135905061218b816134b6565b92915050565b6000813590506121a0816134cd565b92915050565b6000813590506121b5816134e4565b92915050565b6000813590506121ca816134fb565b92915050565b6000815190506121df816134fb565b92915050565b600082601f8301126121f657600080fd5b813561220684826020860161213e565b91505092915050565b60008135905061221e81613512565b92915050565b60006020828403121561223657600080fd5b60006122448482850161217c565b91505092915050565b6000806040838503121561226057600080fd5b600061226e8582860161217c565b925050602061227f8582860161217c565b9150509250929050565b60008060006060848603121561229e57600080fd5b60006122ac8682870161217c565b93505060206122bd8682870161217c565b92505060406122ce8682870161220f565b9150509250925092565b600080600080608085870312156122ee57600080fd5b60006122fc8782880161217c565b945050602061230d8782880161217c565b935050604061231e8782880161220f565b925050606085013567ffffffffffffffff81111561233b57600080fd5b612347878288016121e5565b91505092959194509250565b6000806040838503121561236657600080fd5b60006123748582860161217c565b925050602061238585828601612191565b9150509250929050565b600080604083850312156123a257600080fd5b60006123b08582860161217c565b92505060206123c18582860161220f565b9150509250929050565b6000602082840312156123dd57600080fd5b60006123eb848285016121a6565b91505092915050565b6000806040838503121561240757600080fd5b6000612415858286016121a6565b92505060206124268582860161217c565b9150509250929050565b60006020828403121561244257600080fd5b6000612450848285016121bb565b91505092915050565b60006020828403121561246b57600080fd5b6000612479848285016121d0565b91505092915050565b60006020828403121561249457600080fd5b60006124a28482850161220f565b91505092915050565b6124b481612d29565b82525050565b6124c381612d3b565b82525050565b6124d281612d47565b82525050565b60006124e382612bd1565b6124ed8185612be7565b93506124fd818560208601612db6565b61250681612fac565b840191505092915050565b600061251c82612bdc565b6125268185612bf8565b9350612536818560208601612db6565b61253f81612fac565b840191505092915050565b600061255582612bdc565b61255f8185612c09565b935061256f818560208601612db6565b80840191505092915050565b6000612588602083612bf8565b915061259382612fbd565b602082019050919050565b60006125ab603283612bf8565b91506125b682612fe6565b604082019050919050565b60006125ce602583612bf8565b91506125d982613035565b604082019050919050565b60006125f1601c83612bf8565b91506125fc82613084565b602082019050919050565b6000612614602483612bf8565b915061261f826130ad565b604082019050919050565b6000612637601983612bf8565b9150612642826130fc565b602082019050919050565b600061265a602c83612bf8565b915061266582613125565b604082019050919050565b600061267d603883612bf8565b915061268882613174565b604082019050919050565b60006126a0602a83612bf8565b91506126ab826131c3565b604082019050919050565b60006126c3602983612bf8565b91506126ce82613212565b604082019050919050565b60006126e6602083612bf8565b91506126f182613261565b602082019050919050565b6000612709602c83612bf8565b91506127148261328a565b604082019050919050565b600061272c602f83612bf8565b9150612737826132d9565b604082019050919050565b600061274f602183612bf8565b915061275a82613328565b604082019050919050565b6000612772603183612bf8565b915061277d82613377565b604082019050919050565b6000612795601783612c09565b91506127a0826133c6565b601782019050919050565b60006127b8603083612bf8565b91506127c3826133ef565b604082019050919050565b60006127db601183612c09565b91506127e68261343e565b601182019050919050565b60006127fe602f83612bf8565b915061280982613467565b604082019050919050565b61281d81612d9d565b82525050565b600061282f828561254a565b915061283b828461254a565b91508190509392505050565b600061285282612788565b915061285e828561254a565b9150612869826127ce565b9150612875828461254a565b91508190509392505050565b600060208201905061289660008301846124ab565b92915050565b60006080820190506128b160008301876124ab565b6128be60208301866124ab565b6128cb6040830185612814565b81810360608301526128dd81846124d8565b905095945050505050565b60006020820190506128fd60008301846124ba565b92915050565b600060208201905061291860008301846124c9565b92915050565b600060208201905081810360008301526129388184612511565b905092915050565b600060208201905081810360008301526129598161257b565b9050919050565b600060208201905081810360008301526129798161259e565b9050919050565b60006020820190508181036000830152612999816125c1565b9050919050565b600060208201905081810360008301526129b9816125e4565b9050919050565b600060208201905081810360008301526129d981612607565b9050919050565b600060208201905081810360008301526129f98161262a565b9050919050565b60006020820190508181036000830152612a198161264d565b9050919050565b60006020820190508181036000830152612a3981612670565b9050919050565b60006020820190508181036000830152612a5981612693565b9050919050565b60006020820190508181036000830152612a79816126b6565b9050919050565b60006020820190508181036000830152612a99816126d9565b9050919050565b60006020820190508181036000830152612ab9816126fc565b9050919050565b60006020820190508181036000830152612ad98161271f565b9050919050565b60006020820190508181036000830152612af981612742565b9050919050565b60006020820190508181036000830152612b1981612765565b9050919050565b60006020820190508181036000830152612b39816127ab565b9050919050565b60006020820190508181036000830152612b59816127f1565b9050919050565b6000602082019050612b756000830184612814565b92915050565b6000612b85612b96565b9050612b918282612e45565b919050565b6000604051905090565b600067ffffffffffffffff821115612bbb57612bba612f7d565b5b612bc482612fac565b9050602081019050919050565b600081519050919050565b600081519050919050565b600082825260208201905092915050565b600082825260208201905092915050565b600081905092915050565b6000612c1f82612d9d565b9150612c2a83612d9d565b9250827fffffffffffffffffffffffffffffffffffffffffffffffffffffffffffffffff03821115612c5f57612c5e612ef0565b5b828201905092915050565b6000612c7582612d9d565b9150612c8083612d9d565b925082612c9057612c8f612f1f565b5b828204905092915050565b6000612ca682612d9d565b9150612cb183612d9d565b9250817fffffffffffffffffffffffffffffffffffffffffffffffffffffffffffffffff0483118215151615612cea57612ce9612ef0565b5b828202905092915050565b6000612d0082612d9d565b9150612d0b83612d9d565b925082821015612d1e57612d1d612ef0565b5b828203905092915050565b6000612d3482612d7d565b9050919050565b60008115159050919050565b6000819050919050565b60007fffffffff0000000000000000000000000000000000000000000000000000000082169050919050565b600073ffffffffffffffffffffffffffffffffffffffff82169050919050565b6000819050919050565b82818337600083830152505050565b60005b83811015612dd4578082015181840152602081019050612db9565b83811115612de3576000848401525b50505050565b6000612df482612d9d565b91506000821415612e0857612e07612ef0565b5b600182039050919050565b60006002820490506001821680612e2b57607f821691505b60208210811415612e3f57612e3e612f4e565b5b50919050565b612e4e82612fac565b810181811067ffffffffffffffff82111715612e6d57612e6c612f7d565b5b80604052505050565b6000612e8182612d9d565b91507fffffffffffffffffffffffffffffffffffffffffffffffffffffffffffffffff821415612eb457612eb3612ef0565b5b600182019050919050565b6000612eca82612d9d565b9150612ed583612d9d565b925082612ee557612ee4612f1f565b5b828206905092915050565b7f4e487b7100000000000000000000000000000000000000000000000000000000600052601160045260246000fd5b7f4e487b7100000000000000000000000000000000000000000000000000000000600052601260045260246000fd5b7f4e487b7100000000000000000000000000000000000000000000000000000000600052602260045260246000fd5b7f4e487b7100000000000000000000000000000000000000000000000000000000600052604160045260246000fd5b6000601f19601f8301169050919050565b7f537472696e67733a20686578206c656e67746820696e73756666696369656e74600082015250565b7f4552433732313a207472616e7366657220746f206e6f6e20455243373231526560008201527f63656976657220696d706c656d656e7465720000000000000000000000000000602082015250565b7f4552433732313a207472616e736665722066726f6d20696e636f72726563742060008201527f6f776e6572000000000000000000000000000000000000000000000000000000602082015250565b7f4552433732313a20746f6b656e20616c7265616479206d696e74656400000000600082015250565b7f4552433732313a207472616e7366657220746f20746865207a65726f2061646460008201527f7265737300000000000000000000000000000000000000000000000000000000602082015250565b7f4552433732313a20617070726f766520746f2063616c6c657200000000000000600082015250565b7f4552433732313a206f70657261746f7220717565727920666f72206e6f6e657860008201527f697374656e7420746f6b656e0000000000000000000000000000000000000000602082015250565b7f4552433732313a20617070726f76652063616c6c6572206973206e6f74206f7760008201527f6e6572206e6f7220617070726f76656420666f7220616c6c0000000000000000602082015250565b7f4552433732313a2062616c616e636520717565727920666f7220746865207a6560008201527f726f206164647265737300000000000000000000000000000000000000000000602082015250565b7f4552433732313a206f776e657220717565727920666f72206e6f6e657869737460008201527f656e7420746f6b656e0000000000000000000000000000000000000000000000602082015250565b7f4552433732313a206d696e7420746f20746865207a65726f2061646472657373600082015250565b7f4552433732313a20617070726f76656420717565727920666f72206e6f6e657860008201527f697374656e7420746f6b656e0000000000000000000000000000000000000000602082015250565b7f4552433732314d657461646174613a2055524920717565727920666f72206e6f60008201527f6e6578697374656e7420746f6b656e0000000000000000000000000000000000602082015250565b7f4552433732313a20617070726f76616c20746f2063757272656e74206f776e6560008201527f7200000000000000000000000000000000000000000000000000000000000000602082015250565b7f4552433732313a207472616e736665722063616c6c6572206973206e6f74206f60008201527f776e6572206e6f7220617070726f766564000000000000000000000000000000602082015250565b7f416363657373436f6e74726f6c3a206163636f756e7420000000000000000000600082015250565b7f4552433732314275726e61626c653a2063616c6c6572206973206e6f74206f7760008201527f6e6572206e6f7220617070726f76656400000000000000000000000000000000602082015250565b7f206973206d697373696e6720726f6c6520000000000000000000000000000000600082015250565b7f416363657373436f6e74726f6c3a2063616e206f6e6c792072656e6f756e636560008201527f20726f6c657320666f722073656c660000000000000000000000000000000000602082015250565b6134bf81612d29565b81146134ca57600080fd5b50565b6134d681612d3b565b81146134e157600080fd5b50565b6134ed81612d47565b81146134f857600080fd5b50565b61350481612d51565b811461350f57600080fd5b50565b61351b81612d9d565b811461352657600080fd5b5056fea2646970667358221220e24b52026ec6beb4d5930008647b1186aa1548648fb370edd1fd6d76a6c4374264736f6c63430008040033",
  "linkReferences": {},
  "deployedLinkReferences": {}
}